{
  "abi": [
    {
      "inputs": [
        {
          "internalType": "address",
          "name": "_approver",
          "type": "address"
        },
        {
          "internalType": "address",
          "name": "_developer",
          "type": "address"
        },
        {
          "internalType": "address",
          "name": "_newGenerator",
          "type": "address"
        },
        {
          "internalType": "address",
          "name": "_newRouter",
          "type": "address"
        },
        {
          "internalType": "uint256",
          "name": "_minBalanceLimitSupra",
          "type": "uint256"
        }
      ],
      "stateMutability": "nonpayable",
      "type": "constructor"
    },
    {
      "anonymous": false,
      "inputs": [
        {
          "indexed": false,
          "internalType": "address",
          "name": "_depositer",
          "type": "address"
        },
        {
          "indexed": false,
          "internalType": "uint256",
          "name": "amount",
          "type": "uint256"
        }
      ],
      "name": "ClientDeposited",
      "type": "event"
    },
    {
      "anonymous": false,
      "inputs": [
        {
          "indexed": false,
          "internalType": "address",
          "name": "_clientAddress",
          "type": "address"
        },
        {
          "indexed": false,
          "internalType": "uint256",
          "name": "_removedTime",
          "type": "uint256"
        }
      ],
      "name": "ClientRemovedFromWhitelist",
      "type": "event"
    },
    {
      "anonymous": false,
      "inputs": [
        {
          "indexed": false,
          "internalType": "address",
          "name": "_clientAddress",
          "type": "address"
        },
        {
          "indexed": false,
          "internalType": "uint256",
          "name": "_startTime",
          "type": "uint256"
        },
        {
          "indexed": false,
          "internalType": "uint256",
          "name": "_endTime",
          "type": "uint256"
        },
        {
          "indexed": false,
          "internalType": "bool",
          "name": "_isSnap",
          "type": "bool"
        }
      ],
      "name": "ClientWhitelisted",
      "type": "event"
    },
    {
      "anonymous": false,
      "inputs": [
        {
          "indexed": false,
          "internalType": "address",
          "name": "_withdrawer",
          "type": "address"
        },
        {
          "indexed": false,
          "internalType": "uint256",
          "name": "amount",
          "type": "uint256"
        }
      ],
      "name": "ClientWithdrwal",
      "type": "event"
    },
    {
      "anonymous": false,
      "inputs": [
        {
          "indexed": false,
          "internalType": "address",
          "name": "_coldWalletAddress",
          "type": "address"
        }
      ],
      "name": "ColdWalletConfirmed",
      "type": "event"
    },
    {
      "anonymous": false,
      "inputs": [
        {
          "indexed": false,
          "internalType": "address",
          "name": "_clientAddress",
          "type": "address"
        },
        {
          "indexed": false,
          "internalType": "address",
          "name": "_contractAddress",
          "type": "address"
        },
        {
          "indexed": false,
          "internalType": "uint256",
          "name": "_timeStamp",
          "type": "uint256"
        }
      ],
      "name": "ContractWhitelisted",
      "type": "event"
    },
    {
      "anonymous": false,
      "inputs": [
        {
          "indexed": false,
          "internalType": "address",
          "name": "_clientAddress",
          "type": "address"
        },
        {
          "indexed": false,
          "internalType": "uint256",
          "name": "_removedTime",
          "type": "uint256"
        }
      ],
      "name": "ContractsDeletedFromWhitelist",
      "type": "event"
    },
    {
      "anonymous": false,
      "inputs": [
        {
          "indexed": false,
          "internalType": "address",
          "name": "_clientAddress",
          "type": "address"
        },
        {
          "indexed": false,
          "internalType": "uint256",
          "name": "limit",
          "type": "uint256"
        }
      ],
      "name": "MinBalanceClientSet",
      "type": "event"
    },
    {
      "anonymous": false,
      "inputs": [
        {
          "indexed": true,
          "internalType": "address",
          "name": "previousOwner",
          "type": "address"
        },
        {
          "indexed": true,
          "internalType": "address",
          "name": "newOwner",
          "type": "address"
        }
      ],
      "name": "OwnershipTransferStarted",
      "type": "event"
    },
    {
      "anonymous": false,
      "inputs": [
        {
          "indexed": true,
          "internalType": "address",
          "name": "previousOwner",
          "type": "address"
        },
        {
          "indexed": true,
          "internalType": "address",
          "name": "newOwner",
          "type": "address"
        }
      ],
      "name": "OwnershipTransferred",
      "type": "event"
    },
    {
      "anonymous": false,
      "inputs": [
        {
          "indexed": false,
          "internalType": "address",
          "name": "account",
          "type": "address"
        }
      ],
      "name": "Paused",
      "type": "event"
    },
    {
      "anonymous": false,
      "inputs": [
        {
          "indexed": false,
          "internalType": "address",
          "name": "_fromClient",
          "type": "address"
        },
        {
          "indexed": false,
          "internalType": "uint256",
          "name": "amount",
          "type": "uint256"
        }
      ],
      "name": "SupraCollected",
      "type": "event"
    },
    {
      "anonymous": false,
      "inputs": [
        {
          "indexed": false,
          "internalType": "address",
          "name": "_toClient",
          "type": "address"
        },
        {
          "indexed": false,
          "internalType": "uint256",
          "name": "amount",
          "type": "uint256"
        }
      ],
      "name": "SupraRefunded",
      "type": "event"
    },
    {
      "anonymous": false,
      "inputs": [
        {
          "indexed": false,
          "internalType": "address",
          "name": "account",
          "type": "address"
        }
      ],
      "name": "Unpaused",
      "type": "event"
    },
    {
      "inputs": [],
      "name": "_tempWallet",
      "outputs": [
        {
          "internalType": "address",
          "name": "",
          "type": "address"
        }
      ],
      "stateMutability": "view",
      "type": "function"
    },
    {
      "inputs": [],
      "name": "acceptOwnership",
      "outputs": [],
      "stateMutability": "nonpayable",
      "type": "function"
    },
    {
      "inputs": [
        {
          "internalType": "address",
          "name": "_clientAddress",
          "type": "address"
        },
        {
          "internalType": "bool",
          "name": "_isSnap",
          "type": "bool"
        }
      ],
      "name": "addClientToWhitelist",
      "outputs": [],
      "stateMutability": "nonpayable",
      "type": "function"
    },
    {
      "inputs": [
        {
          "internalType": "address",
          "name": "_contractAddress",
          "type": "address"
        }
      ],
      "name": "addContractToWhitelist",
      "outputs": [],
      "stateMutability": "nonpayable",
      "type": "function"
    },
    {
      "inputs": [],
      "name": "adminFeelsOK",
      "outputs": [
        {
          "internalType": "bool",
          "name": "",
          "type": "bool"
        }
      ],
      "stateMutability": "view",
      "type": "function"
    },
    {
      "inputs": [],
      "name": "approver",
      "outputs": [
        {
          "internalType": "address",
          "name": "",
          "type": "address"
        }
      ],
      "stateMutability": "view",
      "type": "function"
    },
    {
      "inputs": [],
      "name": "checkBalanceAllWhitelisted",
      "outputs": [
        {
          "internalType": "address[]",
          "name": "",
          "type": "address[]"
        },
        {
          "internalType": "uint256[]",
          "name": "",
          "type": "uint256[]"
        },
        {
          "internalType": "uint256[]",
          "name": "",
          "type": "uint256[]"
        }
      ],
      "stateMutability": "view",
      "type": "function"
    },
    {
      "inputs": [
        {
          "internalType": "address",
          "name": "_clientAddress",
          "type": "address"
        }
      ],
      "name": "checkClientFund",
      "outputs": [
        {
          "internalType": "uint256",
          "name": "",
          "type": "uint256"
        }
      ],
      "stateMutability": "view",
      "type": "function"
    },
    {
      "inputs": [
        {
          "internalType": "address",
          "name": "_clientAddress",
          "type": "address"
        }
      ],
      "name": "checkEffectiveBalance",
      "outputs": [
        {
          "internalType": "uint256",
          "name": "",
          "type": "uint256"
        }
      ],
      "stateMutability": "view",
      "type": "function"
    },
    {
      "inputs": [
        {
          "internalType": "address",
          "name": "_clientAddress",
          "type": "address"
        }
      ],
      "name": "checkMinBalance",
      "outputs": [
        {
          "internalType": "uint256",
          "name": "",
          "type": "uint256"
        }
      ],
      "stateMutability": "view",
      "type": "function"
    },
    {
      "inputs": [],
      "name": "checkMinBalanceSupra",
      "outputs": [
        {
          "internalType": "uint256",
          "name": "",
          "type": "uint256"
        }
      ],
      "stateMutability": "view",
      "type": "function"
    },
    {
      "inputs": [],
      "name": "checkSupraFund",
      "outputs": [
        {
          "internalType": "uint256",
          "name": "",
          "type": "uint256"
        }
      ],
      "stateMutability": "view",
      "type": "function"
    },
    {
      "inputs": [
        {
          "internalType": "uint256",
          "name": "_amount",
          "type": "uint256"
        }
      ],
      "name": "claimFreeNodeExpenses",
      "outputs": [],
      "stateMutability": "nonpayable",
      "type": "function"
    },
    {
      "inputs": [],
      "name": "coldWallet",
      "outputs": [
        {
          "internalType": "address",
          "name": "",
          "type": "address"
        }
      ],
      "stateMutability": "view",
      "type": "function"
    },
    {
      "inputs": [
        {
          "internalType": "address",
          "name": "_clientAddress",
          "type": "address"
        },
        {
          "internalType": "uint256",
          "name": "_amount",
          "type": "uint256"
        }
      ],
      "name": "collectFund",
      "outputs": [],
      "stateMutability": "nonpayable",
      "type": "function"
    },
    {
      "inputs": [],
      "name": "confirmColdWallet",
      "outputs": [],
      "stateMutability": "nonpayable",
      "type": "function"
    },
    {
      "inputs": [],
      "name": "countTotalWhitelistedClient",
      "outputs": [
        {
          "internalType": "uint256",
          "name": "",
          "type": "uint256"
        }
      ],
      "stateMutability": "view",
      "type": "function"
    },
    {
      "inputs": [
        {
          "internalType": "address",
          "name": "_clientAddress",
          "type": "address"
        }
      ],
      "name": "countTotalWhitelistedContractByClient",
      "outputs": [
        {
          "internalType": "uint256",
          "name": "",
          "type": "uint256"
        }
      ],
      "stateMutability": "view",
      "type": "function"
    },
    {
      "inputs": [],
      "name": "depositFundClient",
      "outputs": [],
      "stateMutability": "payable",
      "type": "function"
    },
    {
      "inputs": [],
      "name": "depositSupraFund",
      "outputs": [],
      "stateMutability": "payable",
      "type": "function"
    },
    {
      "inputs": [],
      "name": "developer",
      "outputs": [
        {
          "internalType": "address",
          "name": "",
          "type": "address"
        }
      ],
      "stateMutability": "view",
      "type": "function"
    },
    {
      "inputs": [
        {
          "internalType": "address",
          "name": "_fundReceiver",
          "type": "address"
        },
        {
          "internalType": "uint256",
          "name": "_amount",
          "type": "uint256"
        }
      ],
      "name": "executeRefund",
      "outputs": [],
      "stateMutability": "nonpayable",
      "type": "function"
    },
    {
      "inputs": [],
      "name": "generator",
      "outputs": [
        {
          "internalType": "address",
          "name": "",
          "type": "address"
        }
      ],
      "stateMutability": "view",
      "type": "function"
    },
    {
      "inputs": [
        {
          "internalType": "address",
          "name": "_clientAddress",
          "type": "address"
        }
      ],
      "name": "getSubscriptionInfoByClient",
      "outputs": [
        {
          "internalType": "uint256",
          "name": "",
          "type": "uint256"
        },
        {
          "internalType": "uint256",
          "name": "",
          "type": "uint256"
        },
        {
          "internalType": "bool",
          "name": "",
          "type": "bool"
        }
      ],
      "stateMutability": "view",
      "type": "function"
    },
    {
      "inputs": [
        {
          "internalType": "address",
          "name": "_clientAddress",
          "type": "address"
        }
      ],
      "name": "isClientWhitelisted",
      "outputs": [
        {
          "internalType": "bool",
          "name": "",
          "type": "bool"
        }
      ],
      "stateMutability": "view",
      "type": "function"
    },
    {
      "inputs": [
        {
          "internalType": "address",
          "name": "_clientAddress",
          "type": "address"
        },
        {
          "internalType": "address",
          "name": "_contractAddress",
          "type": "address"
        }
      ],
      "name": "isContractEligible",
      "outputs": [
        {
          "internalType": "bool",
          "name": "",
          "type": "bool"
        }
      ],
      "stateMutability": "view",
      "type": "function"
    },
    {
      "inputs": [
        {
          "internalType": "address",
          "name": "_clientAddress",
          "type": "address"
        },
        {
          "internalType": "address",
          "name": "_contractAddress",
          "type": "address"
        }
      ],
      "name": "isContractWhitelisted",
      "outputs": [
        {
          "internalType": "bool",
          "name": "",
          "type": "bool"
        }
      ],
      "stateMutability": "view",
      "type": "function"
    },
    {
      "inputs": [
        {
          "internalType": "address",
          "name": "_clientAddress",
          "type": "address"
        }
      ],
      "name": "isMinimumBalanceReached",
      "outputs": [
        {
          "internalType": "bool",
          "name": "",
          "type": "bool"
        }
      ],
      "stateMutability": "view",
      "type": "function"
    },
    {
      "inputs": [],
      "name": "listAllWhitelistedClient",
      "outputs": [
        {
          "internalType": "address[]",
          "name": "",
          "type": "address[]"
        }
      ],
      "stateMutability": "view",
      "type": "function"
    },
    {
      "inputs": [
        {
          "internalType": "address",
          "name": "_clientAddress",
          "type": "address"
        }
      ],
      "name": "listAllWhitelistedContractByClient",
      "outputs": [
        {
          "internalType": "address[]",
          "name": "",
          "type": "address[]"
        }
      ],
      "stateMutability": "view",
      "type": "function"
    },
    {
      "inputs": [],
      "name": "owner",
      "outputs": [
        {
          "internalType": "address",
          "name": "",
          "type": "address"
        }
      ],
      "stateMutability": "view",
      "type": "function"
    },
    {
      "inputs": [],
      "name": "pauseWithdrawal",
      "outputs": [],
      "stateMutability": "nonpayable",
      "type": "function"
    },
    {
      "inputs": [],
      "name": "paused",
      "outputs": [
        {
          "internalType": "bool",
          "name": "",
          "type": "bool"
        }
      ],
      "stateMutability": "view",
      "type": "function"
    },
    {
      "inputs": [],
      "name": "pendingOwner",
      "outputs": [
        {
          "internalType": "address",
          "name": "",
          "type": "address"
        }
      ],
      "stateMutability": "view",
      "type": "function"
    },
    {
      "inputs": [
        {
          "internalType": "address",
          "name": "_newColdWallet",
          "type": "address"
        }
      ],
      "name": "proposeColdWallet",
      "outputs": [],
      "stateMutability": "nonpayable",
      "type": "function"
    },
    {
      "inputs": [
        {
          "internalType": "address",
          "name": "_clientAddress",
          "type": "address"
        }
      ],
      "name": "removeAllContractOfClient",
      "outputs": [],
      "stateMutability": "nonpayable",
      "type": "function"
    },
    {
      "inputs": [
        {
          "internalType": "address",
          "name": "_clientAddress",
          "type": "address"
        }
      ],
      "name": "removeClientFromWhitelist",
      "outputs": [],
      "stateMutability": "nonpayable",
      "type": "function"
    },
    {
      "inputs": [
        {
          "internalType": "address",
          "name": "_contractAddress",
          "type": "address"
        }
      ],
      "name": "removeContractFromWhitelist",
      "outputs": [],
      "stateMutability": "nonpayable",
      "type": "function"
    },
    {
      "inputs": [],
      "name": "router",
      "outputs": [
        {
          "internalType": "address",
          "name": "",
          "type": "address"
        }
      ],
      "stateMutability": "view",
      "type": "function"
    },
    {
      "inputs": [
        {
          "internalType": "uint256",
          "name": "_limit",
          "type": "uint256"
        }
      ],
      "name": "setMinBalanceClient",
      "outputs": [],
      "stateMutability": "nonpayable",
      "type": "function"
    },
    {
      "inputs": [
        {
          "internalType": "address",
          "name": "newOwner",
          "type": "address"
        }
      ],
      "name": "transferOwnership",
      "outputs": [],
      "stateMutability": "nonpayable",
      "type": "function"
    },
    {
      "inputs": [],
      "name": "unpauseWithdrawal",
      "outputs": [],
      "stateMutability": "nonpayable",
      "type": "function"
    },
    {
      "inputs": [
        {
          "internalType": "address",
          "name": "_newDeveloper",
          "type": "address"
        }
      ],
      "name": "updateDeveloper",
      "outputs": [],
      "stateMutability": "nonpayable",
      "type": "function"
    },
    {
      "inputs": [
        {
          "internalType": "address",
          "name": "_newGenerator",
          "type": "address"
        },
        {
          "internalType": "address",
          "name": "_newRouter",
          "type": "address"
        }
      ],
      "name": "updateGeneratorRouter",
      "outputs": [],
      "stateMutability": "nonpayable",
      "type": "function"
    },
    {
      "inputs": [
        {
          "internalType": "uint256",
          "name": "_limit",
          "type": "uint256"
        }
      ],
      "name": "updateMinBalanceSupra",
      "outputs": [],
      "stateMutability": "nonpayable",
      "type": "function"
    },
    {
      "inputs": [
        {
          "internalType": "address",
          "name": "_clientAddress",
          "type": "address"
        },
        {
          "internalType": "uint256",
          "name": "_newEndTime",
          "type": "uint256"
        }
      ],
      "name": "updateSubscription",
      "outputs": [],
      "stateMutability": "nonpayable",
      "type": "function"
    },
    {
      "inputs": [
        {
          "internalType": "uint256",
          "name": "_amount",
          "type": "uint256"
        }
      ],
      "name": "withdrawFundClient",
      "outputs": [],
      "stateMutability": "nonpayable",
      "type": "function"
    }
  ],
  "bytecode": {
    "object": "0x6080346200023657601f62002bc338819003918201601f191683019291906001600160401b038411838510176200023b578160a092849260409687528339810103126200023657620000518162000251565b6200005f6020830162000251565b906200006d84840162000251565b9260806200007e6060830162000251565b91015193600154926000549460018060a01b031995338782161760005588519260018060a01b03968792833391167f8be0079c531659141344cd1fd0a4f28419497f9722a3daafe3b4186f6b6457e0600080a36001600160a81b0319166001551691338314620001f45750841680151580620001ea575b80620001de575b80620001d2575b156200018f5786156200014b579084929186600f541617600f5585600e541617600e551683600a541617600a551690600b541617600b556009555161295c9081620002678239f35b875162461bcd60e51b815260206004820152601d60248201527f496e76616c6964204d696e696d756d2062616c616e6365206c696d69740000006044820152606490fd5b6064885162461bcd60e51b815260206004820152602060248201527f416464726573732063616e6e6f742062652061207a65726f20616464726573736044820152fd5b50848416151562000103565b508483161515620000fc565b50811515620000f5565b62461bcd60e51b815260206004820152601c60248201527f41646d696e2063616e6e6f742062652074686520617070726f766572000000006044820152606490fd5b600080fd5b634e487b7160e01b600052604160045260246000fd5b51906001600160a01b0382168203620002365756fe608060408181526004918236101561001657600080fd5b600092833560e01c91826303df669314611df85750816308b35dd414611cbc578163141a8dd814611c935781631e06a9ec14611c6d5781631e7c886914611c225781631f721d9014611afc578163233fe0ec14611abf578163287997ea14611a96578163317a229614611a775781633704c94f14611a585781633b698197146119bc5781634c906d751461189f5781634cf614a11461186e5781635a5e701a1461173d5781635c975abb1461171657816368d15bbf146116005781636be13c92146115d75781636ca2a3951461147a5781636f4c3e8c1461135f578163723fed311461133d57816375f4b8a21461128157816379ba5097146111c05781637afa1eed1461119757816386f6fef7146111695781638a3b87c6146110075781638bad5de914610fe15781638da5cb5b14610fb9578163965427c314610e6c57816398f309cc14610d475781639c69c78214610ce6578163b267cfa314610b64578163b480bfff14610a8c578163b52ddfbc146109eb578163bbdded0f146108dd578163c02420f214610884578163c168ae5714610798578163c1e877371461066d578163c36e5d0914610640578163ca4b208b14610617578163d13deea0146104df578163d23d433314610487578163e30c39781461045e578163ebefa86614610437578163f096245d1461035057508063f2fde38b146102e0578063f887ea40146102b85763f948ae291461022a57600080fd5b816003193601126102b4577f1a1293d7af3357cec67893722572b0342502edfe63a5fd97b5d68cb68321d9b190610276610271336000526003602052604060002054151590565b611f4c565b338352600760205261028c818420543490611f29565b3380855260076020908152838620929092559151918252349082015280604081015b0390a180f35b5080fd5b50346102b457816003193601126102b457600b5490516001600160a01b039091168152602090f35b823461034d57602036600319011261034d576102fa611e87565b610302612867565b600180546001600160a01b0319166001600160a01b0392831690811790915582549091167f38d16b8cac22d99fc7c124b9cd0de2d3fa1faef420bfe791d8c362d765e227008380a380f35b80fd5b82843461034d57602036600319011261034d576001600160a01b0380610374611e87565b1690610390610271836000526003602052604060002054151590565b813314908115610428575b811561041a575b811561040c575b50156103c15781526020928352819020549051908152f35b825162461bcd60e51b8152602081860152603160248201526000805160206129078339815191526044820152701ac81d1a19481d1bdd185b0818dbdd5b9d607a1b6064820152608490fd5b9050600a54163314856103a9565b8091508354163314906103a2565b809150600f541633149061039b565b5050346102b457816003193601126102b45760209060ff600f5460a01c1690519015158152f35b5050346102b457816003193601126102b45760015490516001600160a01b039091168152602090f35b833461034d57602036600319011261034d576104a1611e87565b6104a9612867565b600d80546001600160a01b0319166001600160a01b0392909216919091179055600f805460ff60a01b1916600160a01b17905580f35b91905034610613576020366003190112610613578135916104fe6128bf565b6105073361203d565b83116105bc5761051f8361051a3361203d565b612030565b3385526007602052828520558380808086335af161053b611ff4565b501561057a57505133815260208101919091527fc74ad6879c7740563cf7f39668cc9ad4010de80d20cbff857d745eeba33cbd109080604081016102ae565b6020606492519162461bcd60e51b8352820152601c60248201527f43616e6e6f7420776974686472617720636c69656e742066756e6473000000006044820152fd5b6020608492519162461bcd60e51b8352820152602c60248201527f496e73756666696369656e742046756e64733a2046756e64207769746864726160448201526b3bb4b73390313c903ab9b2b960a11b6064820152fd5b8280fd5b5050346102b457816003193601126102b457600f5490516001600160a01b039091168152602090f35b5050346102b45760203660031901126102b457602090610666610661611e87565b61203d565b9051908152f35b839150346102b45760203660031901126102b4576001600160a01b039081610693611e87565b16916106af610271846000526003602052604060002054151590565b823314908115610789575b811561077b575b811561076d575b501561071657606084808585815260056020522090806106e6611f98565b9280549384815260ff60026001840154938460208501520154161515938491015281519384526020840152820152f35b608490602085519162461bcd60e51b83528201526037602482015260008051602061290783398151915260448201527f6b2074686520737562736372697074696f6e20696e666f0000000000000000006064820152fd5b9050600a54163314856106c8565b8091508454163314906106c1565b809150600f54163314906106ba565b91905034610613576020366003190112610613578135916107c9610271336000526003602052604060002054151590565b600954831061081c575033808452600660209081528285208490559151908152908101919091527fab834dc04539ce8b6cdebe87cee599127f060c794ebb0dcc66655d6050dc676c9080604081016102ae565b6020608492519162461bcd60e51b8352820152603b60248201527f43616e6e6f74207365742061206c6f776572206c696d6974207468616e20746860448201527f65206c696d69742073657420627920746865206465706c6f79657200000000006064820152fd5b5050346102b457806003193601126102b4576020906108d46108a4611e87565b6108ac611ea2565b906108cf61027160018060a01b0383166000526003602052604060002054151590565b6121c0565b90519015158152f35b9050823461034d57602036600319011261034d576108f9611e87565b6001600160a01b03808216600081815260036020526040902054929492610921901515611f4c565b33149081156109dc575b81156109cf575b5015610982575091602092916109478161203d565b61095082612543565b1061095d575b5051908152f35b61097b91925061097561096f8261203d565b91612543565b90612030565b9083610956565b608490602085519162461bcd60e51b8352820152603360248201526000805160206129078339815191526044820152726b206566666563746976652062616c616e636560681b6064820152fd5b9050825416331485610932565b809150600f541633149061092b565b90503461061357602036600319011261061357610a06611e87565b610a0e612867565b6001600160a01b0316918215610a365750506001600160601b0360a01b600f541617600f5580f35b906020608492519162461bcd60e51b8352820152602a60248201527f446576656c6f70657220616464726573732063616e6e6f742062652061207a65604482015269726f206164647265737360b01b6064820152fd5b9190503461061357602036600319011261061357610aa8611e87565b9133845280602052610ac582852060018060a01b03851690612777565b15610b0b5750516001600160a01b0390911681524260208201527fb427cf1de9ad97d508ddd8d5635c1bc170353a52661b7b77e441474f7c442a7d9080604081016102ae565b6020608492519162461bcd60e51b8352820152602e60248201527f436f6e7472616374206973206e6f742077686974656c6973746564206f72206160448201526d1b1c9958591e481c995b5bdd995960921b6064820152fd5b839150346102b457826003193601126102b457610b7f611e87565b600a54602435926001600160a01b039182163303610c7d57610ba08361203d565b8411610c2057507f63216f1109e37913888a828960a8da002a7702656ade0492848dd2857aa8fe3693946102ae9183168087526007602052610be58583892054612030565b908752600760205281872055610bfd84600854611f29565b600855516001600160a01b03909216825260208201929092529081906040820190565b608490602087519162461bcd60e51b8352820152603160248201527f496e73756666696369656e742046756e64733a20436f6c6c656374696e6720666044820152703ab7323990313c9033b2b732b930ba37b960791b6064820152fd5b608490602087519162461bcd60e51b8352820152603960248201527f43616c6c6572206973206e6f7420746865206f776e65723a204f6e6c7920476560448201527f6e657261746f722063616e20636f6c6c6563742066756e6473000000000000006064820152fd5b5050346102b457816003193601126102b45760207f62e78cea01bee320cd4e420270b5ea74000d11b0c9f74754ebdbfc544b05a25891610d24612867565b610d2c6128bf565b6001805460ff60a01b1916600160a01b17905551338152a180f35b82843461034d57602036600319011261034d57610d62611e87565b6001600160a01b03808216600081815260036020526040902054929392610d8a901515611f4c565b3314918215610e5d575b8215610e4f575b508115610e40575b8115610e32575b5015610dc95760209250610dc061096f8261203d565b10159051908152f35b815162461bcd60e51b8152602081850152603960248201527f556e617574686f72697a6564204163636573733a20416464726573732063616e60448201527f6e6f7420636865636b206d696e696d756d2062616c616e6365000000000000006064820152608490fd5b9050600b5416331484610daa565b809150600a5416331490610da3565b819250541633149085610d9b565b915080600f5416331491610d94565b9190503461061357602036600319011261061357610e88611e87565b91610e91612867565b6001600160a01b038316600081815260036020526040902054610eb5901515611f4c565b84808080610ec28861203d565b855af1610ecd611ff4565b5015610f7657610edc9061268d565b15610f225750516001600160a01b0390911681524260208201527f51e7e2c8606f03d2c1f0b012f6707ef7d99d1562a6c7d9eeca75f5b3af3980d59080604081016102ae565b6020608492519162461bcd60e51b8352820152602960248201527f436c69656e74206e6f742077686974656c6973746564206f7220616c726561646044820152681e481c995b5bdd995960ba1b6064820152fd5b506020606492519162461bcd60e51b8352820152601c60248201527f43616e6e6f74207472616e7366657220636c69656e742066756e6473000000006044820152fd5b5050346102b457816003193601126102b457905490516001600160a01b039091168152602090f35b5050346102b45760203660031901126102b457602090610666611002611e87565b612543565b839150346102b457816003193601126102b457600f546001600160a01b03919082163314801561115d575b156110e6575060025491611044612459565b9261104e8161215a565b916110588261215a565b93815b8381106110a1576110828761109d8a896110908a8351968796606088526060880190611eb8565b908682036020880152611ef5565b9184830390850152611ef5565b0390f35b806110d1836110b36110e1948b612196565b511680865260076020528a8620546110cb848a612196565b52612543565b6110db8289612196565b52612187565b61105b565b60a490602085519162461bcd60e51b8352820152604560248201527f556e617574686f72697a6564204163636573733a204f6e6c7920646576656c6f60448201527f706572206f72206465706c6f7965722063616e20636865636b207468652062616064820152646c616e636560d81b6084820152fd5b50818354163314611032565b5050346102b457806003193601126102b4576020906108d4611189611e87565b611191611ea2565b906121c0565b5050346102b457816003193601126102b457600a5490516001600160a01b039091168152602090f35b91905034610613578260031936011261061357600154916001600160a01b0391338385160361122c5750506001600160a01b031991821660015582543392811683178455167f8be0079c531659141344cd1fd0a4f28419497f9722a3daafe3b4186f6b6457e08380a380f35b906020608492519162461bcd60e51b8352820152602960248201527f4f776e61626c6532537465703a2063616c6c6572206973206e6f7420746865206044820152683732bb9037bbb732b960b91b6064820152fd5b9190503461061357806003193601126106135761129c611e87565b91602435926112a9612867565b6001600160a01b03166000818152600360205260409020549091906112cf901515611f4c565b6202a300420180421161132a578411156112f457508352600560205282206001015580f35b606490602084519162461bcd60e51b8352820152601060248201526f496e76616c696420456e642054696d6560801b6044820152fd5b634e487b7160e01b865260118252602486fd5b8390346102b45760203660031901126102b457611358612867565b3560095580f35b90503461061357602090816003193601126114765761137c611e87565b611384612867565b6001600160a01b0316808552818352838520541561141f57845281528183209083600193848092818601915b6113e7575b50505050815491848155826113c8578480f35b84528320908101905b8181106113dd57808480f35b83815582016113d1565b855481101561141a57806113fe61141492886125a6565b90549060031b1c89528286528884812055612187565b836113b0565b6113b5565b50915162461bcd60e51b815291820152602c60248201527f436f6e747261637473206e6f742077686974656c6973746564206f7220616c7260448201526b1958591e481c995b5bdd995960a21b6064820152608490fd5b8380fd5b91905034610613576020366003190112610613578135611498612867565b600c546001600160a01b0316801561157a5760085480831161151f5785838194936114c583958495612030565b6008555af16114d2611ff4565b50156114dc578280f35b906020606492519162461bcd60e51b8352820152601f60248201527f43616e6e6f7420636c61696d2066726565206e6f646520657870656e736573006044820152fd5b835162461bcd60e51b8152602081870152602f60248201527f496e73756666696369656e742046756e64733a20436c61696d696e672066726560448201526e65206e6f646520657870656e73657360881b6064820152608490fd5b825162461bcd60e51b8152602081860152603160248201527f496e76616c696420416464726573733a20416464726573732063616e6e6f742060448201527062652061207a65726f206164647265737360781b6064820152608490fd5b5050346102b457816003193601126102b457600c5490516001600160a01b039091168152602090f35b919050346106135760203660031901126106135761161c611e87565b91611637610271336000526003602052604060002054151590565b823b156116dc573384528060205261165b8285209360018060a01b03168094612636565b1561169a57507fec3b8f7f6fc93e30f5a4d232044ffe225b0e16bfa3a35dd26929478b7b7cf5079181606092519133835260208301524290820152a180f35b6020606492519162461bcd60e51b8352820152601f60248201527f436f6e747261637420697320416c72656164792077686974656c6973746564006044820152fd5b6020606492519162461bcd60e51b83528201526015602482015274416464726573732063616e6e6f7420626520454f4160581b6044820152fd5b5050346102b457816003193601126102b45760209060ff60015460a01c1690519015158152f35b905034610613578160031936011261061357611757611e87565b90611760611ea2565b90611769612867565b823b151580611864575b15611816576001600160a01b03928316938415158061180b575b156117b65750506001600160601b0360a01b9283600a541617600a551690600b541617600b5580f35b906020608492519162461bcd60e51b8352820152602960248201527f436f6e747261637420616464726573732063616e6e6f742062652061207a65726044820152686f206164647265737360b81b6064820152fd5b50838316151561178d565b608490602085519162461bcd60e51b8352820152602260248201527f416464726573732063616e6e6f7420626520612077616c6c6574206164647265604482015261737360f01b6064820152fd5b50813b1515611773565b5050346102b457816003193601126102b45761109d9061188c612459565b9051918291602083526020830190611eb8565b839150346102b457826003193601126102b4576118ba611e87565b602435916118c6612867565b6001600160a01b0382166000818152600360205260409020549091906118ed901515611f4c565b6008549081851161196d5750946102ae9161192a857ff2e47447f313cd2dfd6619c01eb5086d0e611595137943f8d19508636ce61c769798612030565b60085580875260076020526119428583892054611f29565b908752600760205281872055519283928360209093929193604081019460018060a01b031681520152565b608490602088519162461bcd60e51b83528201526024808201527f496e73756666696369656e742066756e64733a20657865637574696e67207265604482015263199d5b9960e21b6064820152fd5b9050346106135782600319360112610613576119d6612867565b6001549060ff8260a01c1615611a1e575060ff60a01b1916600155513381527f5db9ee0a495bf2e6ff9c91a7834c1ba4fdd244a5e8aa4e537bd38aeae4b073aa90602090a180f35b606490602084519162461bcd60e51b8352820152601460248201527314185d5cd8589b194e881b9bdd081c185d5cd95960621b6044820152fd5b5050346102b457816003193601126102b4576020906002549051908152f35b5050346102b457816003193601126102b4576020906009549051908152f35b5050346102b457816003193601126102b457600d5490516001600160a01b039091168152602090f35b5050346102b45760203660031901126102b4576020906108d46001600160a01b03611ae8611e87565b166000526003602052604060002054151590565b91905034610613578260031936011261061357600e546001600160a01b039081163303611bc857600f549260ff8460a01c1615611b855750916020917ff562f58226d62299459492ca2aa60f98cba368ce1faa18c20b931cb9c84d3a5d93600d541691826001600160601b0360a01b600c541617600c5560ff60a01b1916600f5551908152a180f35b606490602084519162461bcd60e51b8352820152601d60248201527f436f6c642077616c6c65742070726f706f7365206e6f742072656164790000006044820152fd5b815162461bcd60e51b8152602081850152602e60248201527f556e617574686f72697a6564204163636573733a204f6e6c7920417070726f7660448201526d65722063616e20636f6e6669726d60901b6064820152608490fd5b5050346102b45760203660031901126102b45761109d9061188c611c44611e87565b6001600160a01b038116600090815260036020526040902054611c68901515611f4c565b6122c6565b838060031936011261034d57611c81612867565b611c8d34600854611f29565b60085580f35b5050346102b457816003193601126102b457600e5490516001600160a01b039091168152602090f35b8383346102b457806003193601126102b457611cd6611e87565b6024359081151580920361147657611cec612867565b6001600160a01b0316600081815260036020526040902054909290611db657611d14836125be565b5062ed4e00420190814211611da357917f75b0a96771559886d7368303c13fc539a88faea45bbea23b0a72ac991d834a3a9391608093611d52611f98565b4281526002602082019184835283810192868452878b526005602052848b2091518255516001820155019051151560ff8019835416911617905580519384524260208501528301526060820152a180f35b634e487b7160e01b855260118652602485fd5b5162461bcd60e51b8152602081860152601d60248201527f436c69656e7420697320616c72656164792077686974656c69737465640000006044820152606490fd5b9150833461034d578060031936011261034d5754336001600160a01b0391821614908115611e79575b5015611e34576020836008549051908152f35b62461bcd60e51b8252602090820152602d602482015260008051602061290783398151915260448201526c6b2073757072612066756e647360981b6064820152608490fd5b9050600f5416331484611e21565b600435906001600160a01b0382168203611e9d57565b600080fd5b602435906001600160a01b0382168203611e9d57565b90815180825260208080930193019160005b828110611ed8575050505090565b83516001600160a01b031685529381019392810192600101611eca565b90815180825260208080930193019160005b828110611f15575050505090565b835185529381019392810192600101611f07565b91908201809211611f3657565b634e487b7160e01b600052601160045260246000fd5b15611f5357565b60405162461bcd60e51b815260206004820152601e60248201527f436c69656e742061646472657373206e6f742077686974656c697374656400006044820152606490fd5b604051906060820182811067ffffffffffffffff821117611fb857604052565b634e487b7160e01b600052604160045260246000fd5b6040519190601f01601f1916820167ffffffffffffffff811183821017611fb857604052565b3d1561202b573d9067ffffffffffffffff8211611fb85761201e601f8301601f1916602001611fce565b9182523d6000602084013e565b606090565b91908203918211611f3657565b6001600160a01b03908116600081815260036020526040902054909190612065901515611f4c565b813314908115612133575b8115612124575b8115612115575b8115612107575b501561209c57600052600760205260406000205490565b60405162461bcd60e51b815260206004820152603760248201527f556e617574686f72697a6564204163636573733a2041646472657373206e6f7460448201527f20616c6c6f77656420746f20636865636b2066756e64730000000000000000006064820152608490fd5b9050600b5416331438612085565b809150600a541633149061207e565b80915060005416331490612077565b809150600f5416331490612070565b67ffffffffffffffff8111611fb85760051b60200190565b9061216c61216783612142565b611fce565b828152809261217d601f1991612142565b0190602036910137565b6000198114611f365760010190565b80518210156121aa5760209160051b010190565b634e487b7160e01b600052603260045260246000fd5b6001600160a01b03908116600081815260036020526040902054909291906121e9901515611f4c565b82331480156122b9575b80156122ac575b801561229f575b8015612292575b1561223957612236926000526004602052604060002091169060019160005201602052604060002054151590565b90565b60405162461bcd60e51b815260206004820152603e602482015260008051602061290783398151915260448201527f6b20666f72207468652077686974656c697374656420636f6e747261637400006064820152608490fd5b5080600b54163314612208565b5080600a54163314612201565b50806000541633146121fa565b5080600f541633146121f3565b6001600160a01b0390811690338214801561244c575b801561243f575b156123da5781156123955790600081815260046020928184526040908184205461230c8161215a565b9685925b8284106123615750505015612326575050505090565b8051945091928401919067ffffffffffffffff83118584101761234e57505280825236813790565b634e487b7160e01b845260419052602483fd5b90919261238d908288528689528361237b82888b206125a6565b90549060031b1c166110db828c612196565b929190612310565b60405162461bcd60e51b815260206004820152601b60248201527f5573657220616464726573732063616e6e6f74206265207a65726f00000000006044820152606490fd5b60405162461bcd60e51b8152602060048201526043602482015260008051602061290783398151915260448201527f6b20746865206c697374206f662077686974656c697374656420636f6e74726160648201526263747360e81b608482015260a490fd5b50806000541633146122e3565b5080600f541633146122dc565b600f546001600160a01b0390811633148015612536575b156124d4576002908154906124848261215a565b926000805b84811061249857505050505090565b6124cf9083835284817f405787fa12a823e0f2b7631cc41b3ba8828b3321ca811111fa75cd3aa3bb5ace0154166110db8289612196565b612489565b60405162461bcd60e51b815260206004820152603460248201527f556e617574686f72697a6564204163636573733a2043616e6e6f74206c6973746044820152732077686974656c697374656420636c69656e747360601b6064820152608490fd5b5080600054163314612470565b6001600160a01b03166000908152600660205260409020546009548082111561256a575090565b905090565b6002548110156121aa5760026000527f405787fa12a823e0f2b7631cc41b3ba8828b3321ca811111fa75cd3aa3bb5ace0190600090565b80548210156121aa5760005260206000200190600090565b60008181526003602052604081205461256a57600254600160401b81101561262257908261260e6125f78460016040960160025561256f565b819391549060031b91821b91600019901b19161790565b905560025492815260036020522055600190565b634e487b7160e01b82526041600452602482fd5b600082815260018201602052604090205461268657805490600160401b821015611fb8578261266f6125f78460018096018555846125a6565b905580549260005201602052604060002055600190565b5050600090565b6000818152600360205260408120549091908015612772576000199080820181811161275e576002549083820191821161274a57808203612716575b5050506002548015612702578101906126e18261256f565b909182549160031b1b19169055600255815260036020526040812055600190565b634e487b7160e01b84526031600452602484fd5b6127346127256125f79361256f565b90549060031b1c92839261256f565b90558452600360205260408420553880806126c9565b634e487b7160e01b86526011600452602486fd5b634e487b7160e01b85526011600452602485fd5b505090565b90600182019060009281845282602052604084205490811515600014612860576000199180830181811161284c5782549084820191821161283857808203612803575b505050805480156127ef578201916127d283836125a6565b909182549160031b1b191690555582526020526040812055600190565b634e487b7160e01b86526031600452602486fd5b6128236128136125f793866125a6565b90549060031b1c928392866125a6565b905586528460205260408620553880806127ba565b634e487b7160e01b88526011600452602488fd5b634e487b7160e01b87526011600452602487fd5b5050505090565b6000546001600160a01b0316330361287b57565b606460405162461bcd60e51b815260206004820152602060248201527f4f776e61626c653a2063616c6c6572206973206e6f7420746865206f776e65726044820152fd5b60ff60015460a01c166128ce57565b60405162461bcd60e51b815260206004820152601060248201526f14185d5cd8589b194e881c185d5cd95960821b6044820152606490fdfe556e617574686f72697a6564204163636573733a2043616e6e6f742063686563a2646970667358221220bb4de4759bc0930ad7c36c93faa134d43747722925c79cd1a6cb99a60d52802964736f6c63430008130033",
    "linkReferences": {}
  },
  "methodIdentifiers": {
    "_tempWallet()": "287997ea",
    "acceptOwnership()": "79ba5097",
    "addClientToWhitelist(address,bool)": "08b35dd4",
    "addContractToWhitelist(address)": "68d15bbf",
    "adminFeelsOK()": "ebefa866",
    "approver()": "141a8dd8",
    "checkBalanceAllWhitelisted()": "8a3b87c6",
    "checkClientFund(address)": "c36e5d09",
    "checkEffectiveBalance(address)": "bbdded0f",
    "checkMinBalance(address)": "8bad5de9",
    "checkMinBalanceSupra()": "317a2296",
    "checkSupraFund()": "03df6693",
    "claimFreeNodeExpenses(uint256)": "6ca2a395",
    "coldWallet()": "6be13c92",
    "collectFund(address,uint256)": "b267cfa3",
    "confirmColdWallet()": "1f721d90",
    "countTotalWhitelistedClient()": "3704c94f",
    "countTotalWhitelistedContractByClient(address)": "f096245d",
    "depositFundClient()": "f948ae29",
    "depositSupraFund()": "1e06a9ec",
    "developer()": "ca4b208b",
    "executeRefund(address,uint256)": "4c906d75",
    "generator()": "7afa1eed",
    "getSubscriptionInfoByClient(address)": "c1e87737",
    "isClientWhitelisted(address)": "233fe0ec",
    "isContractEligible(address,address)": "c02420f2",
    "isContractWhitelisted(address,address)": "86f6fef7",
    "isMinimumBalanceReached(address)": "98f309cc",
    "listAllWhitelistedClient()": "4cf614a1",
    "listAllWhitelistedContractByClient(address)": "1e7c8869",
    "owner()": "8da5cb5b",
    "pauseWithdrawal()": "9c69c782",
    "paused()": "5c975abb",
    "pendingOwner()": "e30c3978",
    "proposeColdWallet(address)": "d23d4333",
    "removeAllContractOfClient(address)": "6f4c3e8c",
    "removeClientFromWhitelist(address)": "965427c3",
    "removeContractFromWhitelist(address)": "b480bfff",
    "router()": "f887ea40",
    "setMinBalanceClient(uint256)": "c168ae57",
    "transferOwnership(address)": "f2fde38b",
    "unpauseWithdrawal()": "3b698197",
    "updateDeveloper(address)": "b52ddfbc",
    "updateGeneratorRouter(address,address)": "5a5e701a",
    "updateMinBalanceSupra(uint256)": "723fed31",
    "updateSubscription(address,uint256)": "75f4b8a2",
    "withdrawFundClient(uint256)": "d13deea0"
  },
  "id": 31
}